:02000000FE2FD1
:100ACC000130A9250330F4009730F300F30B6C2DA3
:100ADC00F40B6C2D712D0800831203138601F0307A
:100AEC008316031386007F30FF007F088105080002
:100AFC006E30F300832D5A26F3006E307306031903
:100B0C00882D892D812D730808000730831203135B
:100B1C009F007225EF257E25F50066257508CC25EE
:100B2C00912D0028831203138517A630F000F00BCB
:100B3C009D2D0000831203138513A630F000F00BDB
:100B4C00A52D00000800F200831203130513F030EA
:100B5C00FF007F0885057208F10004300310F10CCA
:100B6C00FF3E031DB42D71080F39FF007F0885046B
:100B7C009825F030FF007F08831203138505720857
:100B8C000F39FF007F08850498250800F2008312B6
:100B9C0003130517F030FF007F0885057208F1007C
:100BAC0004300310F10CFF3E031DD72D71080F39D3
:100BBC00FF007F0885049825F030FF007F08831222
:100BCC000313850572080F39FF007F0885049825EB
:100BDC0008008312031385130513051085100511E6
:100BEC008511831603138513051305108510051144
:100BFC0085113430F400F130F300F30B032EF40BB9
:100C0C00032E082EF030FF007F0883120313850596
:100C1C000330FF007F08850498250830F400C930A4
:100C2C00F300F30B172EF40B172E1C2EF030FF00D5
:100C3C007F088312031385050330FF007F088504AA
:100C4C0098256330F300F30B292E2C2EF030FF0087
:100C5C007F088312031385050330FF007F0885048A
:100C6C0098250330F4009730F300F30B3B2EF40B74
:100C7C003B2E402EF030FF007F08831203138505B6
:100C8C00851498250330F4009730F300F30B4C2EA9
:100C9C00F40B4C2E512E2830A9250C30A9250130EF
:100CAC00A9250630A9250800831203130610861403
:100CBC0006158615061A632E642E792E0230F20064
:100CCC004530F100A930F000F00B6A2EF10B6A2EC2
:100CDC00F20B6A2E712E83120313061E762E772EBC
:100CEC00712E3730FD2F861A7C2E7D2E922E0230DF
:100CFC00F2004530F100A930F000F00B832EF10B1F
:100D0C00832EF20B832E8A2E83120313861E8F2EB4
:100D1C00902E8A2E3830FD2F061B952E962EAB2E3C
:100D2C000230F2004530F100A930F000F00B9C2E9F
:100D3C00F10B9C2EF20B9C2EA32E83120313061F79
:100D4C00A82EA92EA32E3930FD2F861BAE2EAF2E2A
:100D5C00C42E0230F2004530F100A930F000F00B47
:100D6C00B52EF10BB52EF20BB52EBC2E8312031340
:100D7C00861FC12EC22EBC2E2F30FD2F06148610BE
:100D8C0006158615061ACB2ECC2EE12E0230F2005B
:100D9C004530F100A930F000F00BD22EF10BD22E21
:100DAC00F20BD22ED92E83120313061EDE2EDF2E4B
:100DBC00D92E3430FD2F861AE42EE52EFA2E023071
:100DCC00F2004530F100A930F000F00BEB2EF10BE6
:100DDC00EB2EF20BEB2EF22E83120313861EF72E44
:100DEC00F82EF22E3530FD2F061BFD2EFE2E132F66
:100DFC000230F2004530F100A930F000F00B042F66
:100E0C00F10B042FF20B042F0B2F83120313061F6D
:100E1C00102F112F0B2F3630FD2F861B162F172F4F
:100E2C002C2F0230F2004530F100A930F000F00B0D
:100E3C001D2FF10B1D2FF20B1D2F242F83120313CB
:100E4C00861F292F2A2F242F7830FD2F0614861465
:100E5C0006118615061A332F342F492F0230F20053
:100E6C004530F100A930F000F00B3A2FF10B3A2F7E
:100E7C00F20B3A2F412F83120313061E462F472FD6
:100E8C00412F3130FD2F861A4C2F4D2F622F0230FF
:100E9C00F2004530F100A930F000F00B532FF10BAC
:100EAC00532FF20B532F5A2F83120313861E5F2FCF
:100EBC00602F5A2F3230FD2F061B652F662F7B2F8C
:100ECC000230F2004530F100A930F000F00B6C2F2D
:100EDC00F10B6C2FF20B6C2F732F83120313061F65
:100EEC00782F792F732F3330FD2F861B7E2F7F2F7A
:100EFC00942F0230F2004530F100A930F000F00BD5
:100F0C00852FF10B852FF20B852F8C2F831203135A
:100F1C00861F912F922F8C2F2D30FD2F06148614A7
:100F2C0006158611061A9B2F9C2FB12F0230F2004A
:100F3C004530F100A930F000F00BA22FF10BA22FDD
:100F4C00F20BA22FA92F83120313061EAE2FAF2F65
:100F5C00A92F4330FD2F861AB42FB52FCA2F02307C
:100F6C00F2004530F100A930F000F00BBB2FF10B73
:100F7C00BB2FF20BBB2FC22F83120313861EC72F5E
:100F8C00C82FC22F3030FD2F061BCD2FCE2FE32FB5
:100F9C000230F2004530F100A930F000F00BD42FF4
:100FAC00F10BD42FF20BD42FDB2F83120313061F5C
:100FBC00E02FE12FDB2F3D30FD2F861BE62FE72F97
:100FCC00FC2F0230F2004530F100A930F000F00B9C
:100FDC00ED2FF10BED2FF20BED2FF42F83120313EA
:100FEC00861FF92FFA2FF42F2B30FD2F6E300800AF
:040FFC0083018B2DB5
:02400E00703F01
:00000001FF
