:02000000FE2FD1
:100D2A00B826A52608004E27F30073080800F50028
:100D3A00F0017408D126F001F00A7508D1260800DE
:100D4A0083160313851305130508F0388500072752
:100D5A00080095269826F600C4268530F400760801
:100D6A009C26AF2E0028F0308316031386008113C9
:100D7A008312031306148614061586150800F0015B
:100D8A000130D1260430F5003D30F400F40BCB2EAF
:100D9A00F50BCB2ED02E0800F3007018D52ED92EC5
:100DAA00831203130517DC2E83120313051373082A
:100DBA00F03985008517A630F100F10BE22E00000C
:100DCA0083120313851373080F39F10003300310DC
:100DDA00F10DFF3E031DEC2E0310710D85008517E2
:100DEA00A630F100F10BF72E0000831203138513CE
:100DFA001B30F2009E30F100F10B012FF20B012F94
:100E0A0000000800C330F500CD30F400F40B0B2FBE
:100E1A00F50B0B2FF0013330D1261B30F5009E3035
:100E2A00F400F40B162FF50B162F0000F0013330E7
:100E3A00D126A630F400F40B202F0000F001333045
:100E4A00D126272F282F0000F0010230D126A63004
:100E5A00F400F40B2E2F0000F0012830D126A63022
:100E6A00F400F40B362F0000F0010130D1260430D3
:100E7A00F5003D30F400F40B402FF50B402F452FC1
:100E8A00F0010C30D126A630F400F40B4A2F0000F2
:100E9A0008008312031306108614061586150730F8
:100EAA00F2005830F1005930F000F00B5A2FF10BD4
:100EBA005A2FF20B5A2F612F83120313061A662F29
:100ECA00672F692F0730FD2F861A6C2F6D2F6F2F12
:100EDA000830FD2F061B722F732F752F0930FD2F37
:100EEA00861B782F792F7B2F2F30FD2F0614861023
:100EFA00061586150730F2005830F1005930F00017
:100F0A00F00B852FF10B852FF20B852F8C2F831277
:100F1A000313061A912F922F942F0430FD2F861A4D
:100F2A00972F982F9A2F0530FD2F061B9D2F9E2F46
:100F3A00A02F0630FD2F861BA32FA42FA62F5830D3
:100F4A00FD2F06148614061186150730F200583054
:100F5A00F1005930F000F00BB02FF10BB02FF20B6B
:100F6A00B02FB72F83120313061ABC2FBD2FBF2F22
:100F7A000130FD2F861AC22FC32FC52F0230FD2F35
:100F8A00061BC82FC92FCB2F0330FD2F861BCE2F50
:100F9A00CF2FD12F2D30FD2F06148614061586115A
:100FAA000730F2005830F1005930F000F00BDB2F17
:100FBA00F10BDB2FF20BDB2FE22F83120313061A3E
:100FCA00E72FE82FEA2F4330FD2F861AED2FEE2F59
:100FDA00F02F3030FD2F061BF32FF42FF62F3D3064
:100FEA00FD2F861BF92FFA2FFC2F2B30FD2FFF30F8
:060FFA0008008301AE2E89
:02400E00FB3F76
:00000001FF
